S0180000476363426F61726450726F6A656374322E737265630E
S113000012C024C023C07EC021C020C04BC01EC06B
S11300101DC01CC01BC01AC019C018C017C016C010
S113002015C014C013C011241FBECFE5D4E0DEBF39
S1130030CDBF10E0A0E6B0E0EAE5F1E002C0059033
S11300400D92A237B107D9F782D085C0D9CFFC0170
S113005088E08AB986E880BD83E389B990819923D1
S113006039F031969CB95D9BFECF91919111FACFF5
S11300702FE986E891E0215080409040E1F700C0EC
S1130080000008958EB588608EBD89B7806189BFF0
S113009080917000909171009BBD8ABD8EB5836084
S11300A08EBD08951F920F920FB60F9211242F93B5
S11300B03F934F935F936F937F938F939F93AF93EC
S11300C0BF93EF93FF9387E690E0C1DFFF91EF9139
S11300D0BF91AF919F918F917F916F915F914F915C
S11300E03F912F910F900FBE0F901F90189588E0AD
S11300F085BD80E889BF80916E0083BD85B586602B
S113010085BD08951F920F920FB60F9211242F935D
S11301103F934F935F936F937F938F939F93AF938B
S1130120BF93EF93FF9380E690E091DFFF91EF910F
S1130130BF91AF919F918F917F916F915F914F91FB
S11301403F912F910F900FBE0F901F901895CFDF06
S10D015099DF7894FFCFF894FFCFF5
S113015A706F6E670D0A0070696E670D0A00F4000D
S105016A127A03
S9030000FC
